:020000040800F2
:1000000068070020590B00083D0300083F03000863
:1000100043030008470300084B03000800000000EA
:100020000000000000000000000000004F03000876
:1000300051030008000000005303000855030008A6
:10004000730B0008730B0008730B0008730B000898
:10005000730B0008730B000891080008730B00086D
:10006000730B0008CB080008FF080008730B00089A
:10007000730B0008730B0008730B0008730B000868
:10008000730B0008730B0008730B0008730B000858
:10009000730B0008730B0008730B0008730B000848
:1000A000730B0008730B0008730B0008730B000838
:1000B000730B0008730B0008730B0008730B000828
:1000C000730B0008730B0008730B0008730B000818
:1000D000730B0008CD0A0008730B0008730B0008AF
:1000E000730B0008730B0008730B0008730B0008F8
:1000F000730B0008730B0008730B0008730B0008E8
:10010000730B0008730B0008730B0008730B0008D7
:10011000730B0008730B0008730B0008730B0008C7
:10012000730B0008730B0008730B0008730B0008B7
:1001300000F002F800F03AF80AA090E8000C8244BF
:100140008344AAF10107DA4501D100F02FF8AFF29C
:10015000090EBAE80F0013F0010F18BFFB1A43F0A5
:1001600001031847A4170000C4170000103A24BF69
:1001700078C878C1FAD8520724BF30C830C144BF0C
:1001800004680C607047000000230024002500264E
:10019000103A28BF78C1FBD8520728BF30C148BFEA
:1001A0000B6070471FB51FBD10B510BD01F079FB86
:1001B0001146FFF7F7FF00F009F801F097FB03B4D1
:1001C000FFF7F2FF03BC00F027FC0000002600252B
:1001D0000027A846002400F0B5FB00F0ADF900F0C0
:1001E000D1F900F0FDFA00F055FA002050490860FE
:1001F0005049C1F8A00118260A25052700BF96E03E
:100200004D48007801281CD102220021304600F020
:10021000B4FA002404E0642000F0D1FB601CC4B2F6
:10022000AC42F8DB02220121304600F0A6FA00249D
:1002300004E0642000F0C3FB601CC4B2AC42F8DBF5
:100240006DE03D48007802280ED1022200214020B6
:1002500000F093FA002404E0642000F0B0FB601C7E
:10026000C4B2BC42F8DB5AE03348007803280ED110
:1002700002220121402000F080FA002404E06420E2
:1002800000F09DFB601CC4B24445F8DB47E02A48FF
:10029000007804283FD102220021012000F06DFAED
:1002A0004FF4FA7000F08BFB02220021104600F0A0
:1002B00064FA4FF4FA7000F082FB0222002104205D
:1002C00000F05BFA4FF4FA7000F079FB0222002193
:1002D000082000F052FA4FF4FA7000F070FB02228E
:1002E0000021102000F049FA4FF4FA7000F067FB8B
:1002F00002220021202000F040FA4FF4FA7000F0B2
:100300005EFB02220021402000F037FA4FF4FA7021
:1003100000F055FB03E04FF4FA7000F050FB044886
:10032000006808B9012000E000200149086067E783
:1003300094812142008021421D000020704700BFAF
:10034000FEE700BFFEE700BFFEE700BFFEE7704725
:1003500070477047704700000CB500200190009076
:100360006C48006840F480306A49086000BF694802
:10037000006800F4003000900198401C0190009843
:1003800018B90198B0F5A06FF1D16248006800F487
:10039000003010B10120009001E000200090009892
:1003A000012843D15C48006840F010005A490860B9
:1003B0000846006820F0030008600846006840F026
:1003C0000200086053484068524948600846406847
:1003D00048600846406840F48060486008464068CD
:1003E00020F47C1048600846406840F4E8104860FB
:1003F0000846006840F08070086000BF454800680B
:1004000000F000700028F9D04248406820F0030056
:10041000404948600846406840F00200486000BF1C
:100420003C48406800F00C000828F9D10CBD10B51C
:10043000FFF792FF10BD10B53648006840F001008C
:1004400034490860084640683449084031494860EA
:1004500008460068324908402E490860084600688E
:1004600020F4802008600846406820F4FE004860C0
:100470004FF41F008860FFF7DAFF4FF00060294952
:10048000086010BD10B5002100200022214B5B68E0
:1004900003F00C0121B1042906D0082928D107E076
:1004A000214B224C236027E01F4B204C236023E08C
:1004B000184B5B6803F47010164B5B6803F48032D2
:1004C000022303EB904022B9194B4343174C23609E
:1004D0000DE0104B5B6803F4003323B1144B43432E
:1004E000124C236003E0104B4343104C236003E0A5
:1004F0000D4B0E4C236000BF00BF064B5B68C3F37F
:1005000003130C4CE15C094B1B68CB40074C236088
:1005100010BD000000100240002002400000FFF863
:10052000FFFFF6FE08ED00E000127A000000002058
:1005300000093D000400002008B50121482000F01A
:10054000B5FE2020ADF8000010208DF80300032038
:100550008DF802006946094800F0ECFB20210748AD
:1005600000F095FC2020ADF800006946044800F03A
:10057000E1FB2021024800F08AFC08BD000C01408C
:100580000018014008B50121082000F08FFE4FF44B
:100590008070ADF8000010208DF8030003208DF866
:1005A00002006946044800F0C5FB4FF48071024820
:1005B00000F06FFC08BD0000000C014008B50121EF
:1005C000442000F073FE1820ADF8000048208DF89C
:1005D000030069462C4800F0ADFB0120ADF8000097
:1005E00028208DF803006946284800F0A3FB08BDC9
:1005F00010B5044614B1012025490870244800783C
:1006000058B31021204800F028FC50B108211E48A2
:1006100000F023FC28B101211C4800F01EFC012839
:100620001BD10A2000F0CBF90020194908701021D5
:10063000154800F012FC08B9012010BD082112482D
:1006400000F00BFC08B90220F7E701210F4800F089
:1006500004FC012815D10320EFE710210A4800F01F
:10066000FCFB01280DD10821074800F0F6FB01280A
:1006700007D10121054800F0F0FB10B90120044921
:1006800008700020D9E70000001801400008014070
:100690001400002008B50121802000F007FE102082
:1006A0008DF8030003208DF802001E20ADF8000035
:1006B0006946484800F03EFB08BD10B50446032CCF
:1006C00010D10221434800F0E2FB0421414800F030
:1006D000DEFB08213F4800F0DCFB10213D4800F024
:1006E000D8FB49E0062C10D102213A4800F0D1FB9A
:1006F0000421384800F0CBFB0821364800F0C7FB46
:100700001021344800F0C5FB36E0092C10D102213D
:10071000304800F0BCFB04212E4800F0BAFB082151
:100720002C4800F0B6FB10212A4800F0B0FB23E073
:100730000C2C10D10221274800F0ABFB04212548E6
:1007400000F0A7FB0821234800F0A1FB102121485D
:1007500000F09DFB10E07CB902211E4800F099FBDF
:1007600004211C4800F095FB08211A4800F091FB79
:100770001021184800F08DFB10BD2DE9F041054611
:100780000E4617464FF000081FE0002419E0012E26
:1007900007D10020FFF791FF0F49085DFFF78DFF9C
:1007A00006E00020FFF789FF0C49085DFFF785FF91
:1007B000022F01DD394600E0022188B200F0FFF887
:1007C000641C042CE3DB08F10108B8EBC50FDCDB8B
:1007D000BDE8F081001C0140150000201900002038
:1007E0000EB5FFF7EBFE0121084600F05FFD032187
:1007F000042000F0B5FB0820019000208DF80800CF
:100800000C208DF8090001A800F0C6FF042108465D
:1008100000F0A6FB1020019001A800F0BDFF002110
:10082000084600F09DFB0120019008208DF809008A
:1008300001A800F0B1FF06208DF8000002208DF81D
:10084000010003208DF8020001208DF803006846A6
:1008500000F0A7F909208DF8000002208DF80100B2
:1008600001208DF802008DF80300684600F099F928
:100870000A208DF8000002208DF8010000208DF87C
:10088000020001208DF80300684600F08AF90EBDD1
:1008900010B50A2000F093F80121264800F0DDFA97
:1008A00001280ED124480078401C234908700846CE
:1008B0000078042801DD002001E01F4800781E496F
:1008C0000870012000F0DFFF10BD10B50A2000F015
:1008D00076F80821194800F0C0FA60B90222012117
:1008E0000846FFF74AFF1648006808B9012000E0F3
:1008F000002013490860082000F0C5FF10BD10B5A6
:100900000A2000F05CF810210C4800F0A6FA60B94B
:10091000022200210120FFF730FF0948006808B9D2
:10092000012000E0002006490860102000F0ABFF25
:1009300010BD0000000801401D000020001801400B
:100940009401234210B56FF0040000F074F92E48B2
:1009500000682E49B0FBF1F02D4908700846007878
:1009600000EB4001C1EBC0104FF6FF7101EAC0007F
:100970002849088010BD0146254A12784A434FF0A5
:10098000E0235A6100229A611A46126942F001027C
:100990001A6100BF4FF0E022106900F001021AB1A5
:1009A00000F48032002AF5D04FF0E022126922F0E4
:1009B00001024FF0E0231A6100229A61704701465C
:1009C000144A12884A434FF0E0235A6100229A6188
:1009D0001A46126942F001021A6100BF4FF0E0228C
:1009E000106900F001021AB100F48032002AF5D03B
:1009F0004FF0E022126922F001024FF0E0231A6169
:100A000000229A61704700000000002000127A0066
:100A10001E0000202000002000BF704700BF4A4A8F
:100A2000128802F04002002AF9D0C2B2464B1B1DC8
:100A30001A80704710B586B00446012144F20400C4
:100A400000F034FC4FF40070ADF8140003208DF872
:100A5000160018208DF8170005A93C4800F06AF927
:100A60004FF48060ADF8140004208DF8170005A93C
:100A7000364800F05FF925208DF8000003208DF83E
:100A800001008DF8020001208DF80300684600F097
:100A900088F801940020ADF80800ADF80A00ADF820
:100AA0000C00ADF810000C20ADF80E0001A926488E
:100AB00000F0A3FC012240F22551234800F035FD4F
:100AC0000121214800F025FD06B010BD10B540F20F
:100AD00025511D4800F00EFE10B31B4800F08AFDA2
:100AE000C4B21B48008800F40040C8B91848008808
:100AF00000F4804060B10A2C03D000201449088023
:100B000020E01348008840F400401149088019E0B3
:100B10000D2C06D10E48008840F480400C49088016
:100B200010E00B480088C0F30D000A490C54084837
:100B30000088401C0649088008460088C72801DD57
:100B40000020088010BD000000380140000801406E
:100B5000280000204000002009488047094800473D
:100B6000FEE7FEE7FEE7FEE7FEE7FEE7FEE7FEE75D
:100B7000FEE7FEE704480549054A064B70470000BA
:100B800037040008310100086801002068070020D0
:100B9000680300206803002031490143314A116095
:100BA000704770B5002100230F22C47804B32D4C88
:100BB000246804F4E064C4F5E064210AC1F104038C
:100BC000CA40447804FA03F18478144021430901AF
:100BD000254C0678A155047804F01F050124AC408B
:100BE00005786D11AD0005F1E025C5F8004109E07B
:100BF000047804F01F050124AC401C4D06787611E2
:100C000045F8264070BD1A4A0A400243154B1B1F87
:100C10001A60704739B1134A121D12680243114B12
:100C20001B1D1A6006E00F4A121D126882430D4B0D
:100C30001B1D1A607047042808D14FF0E021096994
:100C400041F004014FF0E022116107E04FF0E02194
:100C5000096921F004014FF0E022116170470000A2
:100C60000000FA050CED00E000E400E080E100E0A7
:100C700080FFFF1F10B50446CC48844208D10121F3
:100C8000042000F02DFB0021042000F029FB46E0A9
:100C9000C748844208D10121082000F021FB00212F
:100CA000082000F01DFB3AE0C248844208D101212F
:100CB000102000F015FB0021102000F011FB2EE0A9
:100CC000BD48844208D10121202000F009FB002109
:100CD000202000F005FB22E0B848844208D1012121
:100CE000402000F0FDFA0021402000F0F9FA16E063
:100CF000B348844208D10121802000F0F1FA00219C
:100D0000802000F0EDFA0AE0AE48844207D10121CC
:100D1000801500F0E5FA0021A01500F0E1FA10BD01
:100D200010B50121084600F0DBFA0021012000F097
:100D3000D7FA10BD2DE9F04102460025002600201B
:100D400000230024002791F803C00CF00F0591F850
:100D500003C00CF0100CBCF1000F03D091F802C0DE
:100D60004CEA050591F800C0BCF1000F31D01468C1
:100D700000202BE04FF0010C0CFA00F3B1F800C09A
:100D80000CEA03069E4220D183004FF00F0C0CFAB0
:100D900003F7BC4305FA03FC4CEA040491F803C0D2
:100DA000BCF1280F06D14FF0010C0CFA00FCC2F880
:100DB00014C00AE091F803C0BCF1480F05D14FF010
:100DC000010C0CFA00FCC2F810C0401C0828D1D35A
:100DD0001460B1F800C0BCF1FF0F34DD546800208E
:100DE0002EE000F1080C4FF0010808FA0CF3B1F8FE
:100DF00000C00CEA03069E4221D183004FF00F0C85
:100E00000CFA03F7BC4305FA03FC4CEA040491F81E
:100E100003C0BCF1280F05D100F1080C08FA0CF84A
:100E2000C2F8148091F803C0BCF1480F07D100F15B
:100E3000080C4FF0010808FA0CF8C2F81080401CAA
:100E40000828CED35460BDE8F0814FF6FF710180D1
:100E5000022181700421C17070470246002093680E
:100E60000B400BB1012000E000207047014688686C
:100E700080B2704702460020D3680B400BB10120BE
:100E800000E0002070470146C86880B270470161E9
:100E90007047416170470AB1016100E041617047EC
:100EA000C16070474FF480320A4382618161826180
:100EB00082698269704702460020434B18684FF6EA
:100EC0008073184040EA021008433F4B1860704797
:100ED0003E49C8617047F0B50A460023002400214E
:100EE000002500F00046B6F1004F02D1364EF16900
:100EF00001E0354E7168C0F3034583B200F440163B
:100F0000B6F5401F08D121F070612F4E766826F0AB
:100F100070662D4F7E6012E000F48016B6F5801FDB
:100F200006D1032606FA05F4A14341F0706106E0FC
:100F3000460D360103FA06F6B14341F0706122B165
:100F4000460D360103FA06F6314300F00046B6F1CD
:100F5000004F02D11C4EF16101E01B4E7160F0BDEB
:100F600030B500228B071C0F0F2303FA04F2164B37
:100F700008338C1053F824309343134C08348D10ED
:100F800044F8253023468C1053F824308C07240F66
:100F900000FA04F423430C4C08348D1044F8253037
:100FA00030BD0A49DC31086070470000000801408C
:100FB000000C0140001001400014014000180140E5
:100FC000001C0140002001400000014000002042C0
:100FD000DF48006840F00100DD49086008464068CD
:100FE000DC490840DA49486008460068DA490840A8
:100FF000D74908600846006820F480200860084649
:10100000406820F4FE0048604FF41F00886070477D
:10101000CF49096821F48031CD4A11601146096831
:1010200021F480211160B0F5803F03D0B0F5802F0E
:101030000ED106E0C649096841F48031C44A116006
:1010400007E0C349096841F4A021C14A116000E0EA
:1010500000BF00BF704710B50146002200230020EA
:101060004A11012A02D1BA4C236806E0022A02D1B1
:10107000B74C236A01E0B64C636A01F01F020124F9
:1010800094401C400CB1012000E0002010BD38B598
:10109000002000900024002500BF3120FFF7DBFF77
:1010A00005460098401C00900098B0F5A06F01D054
:1010B000002DF2D03120FFF7CEFF08B1012400E06F
:1010C0000024204638BD01460020A14A106820F0C7
:1010D000F80040EAC10010607047A04908607047FE
:1010E000024600209A4B586820F47C1042EA010323
:1010F0001843974B586070479849086670470146F7
:101100000020934A506820F0030008435060704765
:101110008F48406800F00C007047014600208C4A60
:10112000506820F0F00008435060704701460020EE
:10113000874A506820F4E0600843506070470146D9
:101140000020834A506820F4605040EAC10050609B
:10115000704729B17E4A527A02437D4B5A7204E0AD
:101160007B4A527A82437A4B5A7270477B49D83114
:101170000860704701460020754A506820F44040DE
:101180000843506070470021714A20321170704A44
:1011900082F82010012802D004280AD104E001219D
:1011A0006B4A2032117005E00521694A2032117026
:1011B00000E000BF00BF704769490860704764499C
:1011C000096A0143624A11627047654944390860FF
:1011D000704730B500210022002400235C4D6D686B
:1011E00005F00C0121B1042905D0082923D105E01F
:1011F0005C4D056022E05B4D05601FE0544D6D685D
:1012000005F47012524D6D6805F48034022505EB2B
:1012100092421CB9544D554305600BE04C4D6D682E
:1012200005F400351DB1504D5543056002E04D4DAC
:101230005543056002E04B4D056000BF00BF444DC3
:101240006D6805F0F0010909484D6B5C0568DD40EB
:1012500045603F4D6D6805F4E061090A434D6B5CE4
:101260004568DD4085603A4D6D6805F46051C90AF6
:101270003E4D6B5C4568DD40C560354D6D6805F4DD
:101280004041890B3A4D6B5CC568B5FBF3F50561D0
:1012900030BD29B12E4A526902432D4B5A6104E0F8
:1012A0002B4A526982432A4B5A61704729B1284A16
:1012B00092690243264B9A6104E0254A926982436F
:1012C000234B9A61704729B1214AD2690243204BCE
:1012D000DA6104E01E4AD26982431D4BDA6170472D
:1012E00029B11B4AD2680243194BDA6004E0184A5C
:1012F000D2688243164BDA60704729B1144A1269EA
:101300000243134B1A6104E0114A12698243104BE5
:101310001A61704712494039086070470F49C86424
:1013200070470B49C87170470948406A40F08070A7
:1013300007494862704701460020054A92680A4002
:101340000AB1012000E0002070470149887270470F
:10135000001002400000FFF8FFFFF6FE00004242CE
:101360008004424200127A0000093D002A00002059
:101370003A00002010B50446FB48844209D10121FF
:101380008803FFF7ADFF00214FF48040FFF7A8FF6F
:1013900032E0F648844209D101214804FFF7ADFF4D
:1013A00000214FF40030FFF7A8FF25E0F048844209
:1013B00009D101218804FFF7A0FF00214FF480200C
:1013C000FFF79BFF18E0EB48844209D10121C804D4
:1013D000FFF793FF00214FF40020FFF78EFF0BE093
:1013E000E548844208D101210805FFF786FF002166
:1013F0004FF48010FFF781FF10BD2DE9F04786B054
:1014000005460E460024A24600BFA1460027B0892B
:1014100000B100BF2F462C8A4CF6FF700440F088C4
:1014200004432C82AC894EF6F3100440B088318915
:101430000843718908430443AC81AC8A4FF6FF40EE
:101440000440B0890443AC8201A8FFF7C2FEC6483D
:10145000874202D1DDF810A001E0DDF80CA0A889D8
:1014600000F4004040B10AEBCA0000EB0A103168FA
:101470004900B0FBF1F807E00AEBCA0000EB0A10E4
:1014800031688900B0FBF1F86420B8FBF0F004018A
:101490002009642101FB1089A88900F4004040B1B3
:1014A000322000EBC900B0FBF1F000F0070004436C
:1014B00008E0322000EB09106421B0FBF1F000F0ED
:1014C0000F0004432C8106B0BDE8F0874FF416519D
:1014D000016000218180C18001810C2141810021B6
:1014E0008181704710B502460020108A4FF2FF0339
:1014F00018400B884C8823438C882343CC88234393
:101500001843108210BD0021018041808180C1807C
:10151000704721B1828942F40052828104E08289BD
:101520004DF6FF731A4082817047F0B503460024E0
:1015300000260025002040F66A17B94200D100BFFE
:101540001846C1F3421401F01F06012707FA06F5F9
:10155000012C01D10C3004E0022C01D1103000E04C
:1015600014301AB107682F43076002E00768AF43E1
:101570000760F0BD1AB1838A0B43838202E0838A3D
:101580008B4383827047028A4FF6F0731A400282BF
:10159000028A0A430282704782894FF2FF731A401F
:1015A000828182890A438281704721B1828942F017
:1015B0000202828104E082894FF6FD731A40828123
:1015C0007047028A4FF6DF731A400282028A0A438A
:1015D0000282704721B1028A42F48042028204E012
:1015E000028A4BF6FF731A4002827047C1F3080269
:1015F0008280704701468888C0F30800704781895F
:1016000041F0010181817047028BD2B20283028BCB
:1016100042EA012202837047028B02F47F42028376
:10162000028B0A430283704721B1828A42F0200272
:10163000828204E0828A4FF6DF731A40828270470A
:1016400021B1828A42F01002828204E0828A4FF63F
:10165000EF731A408282704721B1828A42F00802F9
:10166000828204E0828A4FF6F7731A4082827047C2
:1016700021B1828942F40042828103E08289C2F36F
:101680000E028281704721B1828A42F40062828216
:1016900004E0828A4FF2FF731A4082827047828A86
:1016A0004FF6FB731A408282828A0A438282704715
:1016B00021B1828A42F00202828204E0828A4FF6DD
:1016C000FD731A408282704702460020B1F5007F08
:1016D00000D100BF13880B400BB1012000E00020B7
:1016E000704701F40072B2F5007F00D100BFCA4319
:1016F0000280704770B502460024002300250020B8
:1017000040F66A16B14200D100BFC1F3421501F0A4
:101710001F03012606FA03F3012D02D196893340F7
:1017200006E0022D02D1168A334001E0968A33404A
:101730000C12012606FA04F41688344013B10CB1D9
:10174000012000E0002070BD10B50022002340F60B
:101750006A14A14200D100BF0A1201249440A3B22E
:10176000DC43048010BD000000380140004400400C
:1017700000480040004C0040005000400020444918
:101780000860091D0860091D0860091D08604148BE
:101790003F4914310860704700213D498279002A91
:1017A0003AD00A46126803689A430B461A600A1D2B
:1017B000126803689A430B1D1A60027911440A6883
:1017C00003681A430A60324A0832126803689A436F
:1017D0002F4B08331A601A1D126803689A432C4B6A
:1017E0000C331A604279102A0ED11A1F126803684E
:1017F0001A43274B08331A601A1D126803681A43EC
:10180000234B0C331A600DE02149427911440A68D8
:1018100003681A430A6005E0027911440A68036804
:101820009A430A6070470021016001710C214171E7
:101830000021817170471649103109680143144A2B
:1018400010321160704701460020114A14321268AC
:101850000A400AB1012000E0002070470C49143111
:1018600008607047014600200022094B1B6803EA0C
:101870000102074B14331B680B4013B10AB101205E
:1018800000E00020704702491431086070470000F2
:1018900000040140FFFF0F0070477047704770471A
:1018A0007047754600F02CF8AE4605006946534671
:1018B00020F00700854618B020B5FFF75BF9BDE8BA
:1018C00020404FF000064FF000074FF000084FF0A7
:1018D000000B21F00701AC46ACE8C009ACE8C00938
:1018E000ACE8C009ACE8C0098D46704710B50446A5
:1018F000AFF300802046BDE81040FEF760BC00005A
:101900000048704708010020281900080000002046
:10191000400000006C010008681900084000002029
:10192000280700008801000800A24A040000000007
:101930000000000001020304060708090103060C69
:101940000903090C06000000000000000000000070
:101950000000000000000102030401020304060766
:0819600008090204060800005A
:0400000508000131BD
:00000001FF
